:020000040800F2
:100000002059002099010008751B000835130008CD
:10001000451B00082D0C0008B72C0008000000004C
:1000200000000000000000000000000001010008C6
:100030003D0D00080000000045010008B92000083F
:10004000B3010008B3010008B3010008B3010008C0
:10005000B3010008B3010008B3010008B3010008B0
:10006000B3010008B3010008B3010008B3010008A0
:10007000B3010008B3010008B3010008B301000890
:10008000B3010008B3010008B3010008B301000880
:10009000B3010008B3010008B3010008B301000870
:1000A000B301000879230008B3010008B301000878
:1000B00091230008B3010008A9230008B301000838
:1000C000B3010008B3010008B3010008B301000840
:1000D000B30100083D2A0008B3010008B30100087D
:1000E000B3010008B3010008B3010008DFF80CD029
:1000F00000F09AFC0048004799320008205900207F
:10010000224B19680868B0E8F00F80F30988BFF344
:100110006F8F4FF0000080F311884EF00D0E704786
:100120000000000006480068006880F3088862B696
:1001300061B6BFF34F8FBFF36F8F00DF00BF00BF0B
:1001400008ED00E0EFF30980BFF36F8F0F4B1A68E3
:1001500020E9F00F106008B54FF0500080F31188CF
:10016000BFF34F8FBFF36F8F04F014FB4FF000000D
:1001700080F31188BDE8084019680868B0E8F00FFE
:1001800080F30988BFF36F8F704700BF50000020D5
:10019000EFF3058070470000064880470648004797
:1001A000FEE7FEE7FEE7FEE7FEE7FEE7FEE7FEE727
:1001B000FEE7FEE7D9200008ED00000840EA010351
:1001C0009B0703D009E008C9121F08C0042AFAD20D
:1001D00003E011F8013B00F8013B521EF9D27047D1
:1001E000D2B201E000F8012B491EFBD27047002279
:1001F000F6E710B513460A4604461946FFF7F0FF26
:10020000204610BDF0B480EA0102D40F4200B2EBE8
:10021000410F02D20246084611464A0042D0C30DA1
:10022000DDB2C1F3C752AD1A202D35DAC1F3160184
:1002300041F4000204B15242C5F1200602FA06F16F
:100240002A411044B3EBD05F23D0C4B1012DA0EB01
:10025000C35009DCF0BC4FF0004202EAC352DBB2EB
:1002600000F5000000F004BB400000F1807000EBDE
:10027000C350A0F1807040EAD170490009E04908FC
:1002800041EAC071A0EBC35000F50000400800EB4C
:10029000C350F0BC00F0E3BA6142012202EB41011D
:1002A000001BF6E7F0BC704781F00041AAE780F040
:1002B0000040A7E780EA010210B502F000434000C9
:1002C00022D04A001FD0010E01EB1261C0F356008C
:1002D000C2F3560240F4000042F40002A0FB0220E8
:1002E00000047F39140400D0401C50EA124001D4AD
:1002F0004000491EC2B20C0604EBD010401C40085E
:10030000802A02D003E0002010BD20F00100002967
:1003100000DA0020184310BD30B480EA010202F078
:10032000004530F0004221F0004013D090B1C30DE1
:10033000D40DC2F31601C0F31600E41A41F4000113
:1003400040F400027D34914201D3641C00E0490076
:10035000002C02DA30BC002070474FF4000000236C
:10036000914201D3891A034340084FEA4101F7D172
:1003700051B1914202D14FF0004105E002D24FF05D
:10038000010101E06FF0010103EBC450284430BCCF
:1003900000F065BA2DE9FE4F804681EA0300C00FE8
:1003A0000C46009021F0004123F00045B8EB02001C
:1003B000A94105D24046214690461C460B460246BE
:1003C00023F00040104347D0270DC7F30A00C3F3C2
:1003D0000A510290401A019040286BDAC3F31300CF
:1003E00040F4801B0098924620B10023D2EB030A10
:1003F00063EB0B0B01985946C0F14002504600F0E8
:10040000FDF906460D4650465946019A00F015FA88
:1004100010EB08006141002487EA115284EAE77377
:100420001A4340D0009A62B3019A012A4FEA075258
:1004300015DC001B61EB02014FF0004202EA07529B
:10044000CDE90042001C41F5801132462B4600F0F8
:100450004CFA03B0BDE8F08F40462146F9E7001B97
:1004600061EB0201001C41F5801300185B4120186C
:10047000A2F5001747EB030140EAD570B6196D41AC
:1004800011E06D084FEA360645EAC0754FEA07529B
:10049000001B61EB0201001C41F5801149084FEA85
:1004A00030000019514132462B4603B0BDE8F04FF1
:1004B00000F00CBA0098012240000023D0EB0202A9
:1004C00063EBE073009821464FEAE074B8EB00005C
:1004D00061EB0401E9E783F000435BE781F0004151
:1004E00058E72DE9FE4F81EA030404F0004421F0AF
:1004F000004100944FF0000B23F0004350EA010448
:100500005ED052EA03045BD0C3F30A54C1F30A5528
:100510002C44A4F2F3340194A0FB0254C1F3130160
:1005200041F48011C3F3130343F4801301FB02442D
:1005300000FB034E840A970A44EA815447EA835732
:10054000A4FB076802958D0A05FB07854FEA932CEB
:1005500004FB0C542705029D4FEA065847EA16375C
:10056000B5EB08056EEB070C870E920E47EA811774
:1005700042EA8312A7FB0201B6EB0B0164EB000415
:100580002B0D43EA0C335E1844EB1C50DA465146FF
:10059000E7FB0201C5F313044FEA0B3343EA14539C
:1005A0004FEA0432019C43EA0603A4F10C040294CE
:1005B000009CCDE900B400F098F903B0BDE8F08FDD
:1005C00000200146F9E72DE9F04D81EA030404F02B
:1005D000004B21F0004514464FF0000A23F0004183
:1005E00050EA050220D054EA01021DD0C5F30A5793
:1005F0000246C5F31303C1F31300C1F30A5640F4D6
:10060000801543F48013A7EB0608101BD64608F2AA
:10061000FD3873EB050002D308F1010801E09218E0
:100620005B41B8F1000F03DA00200146BDE8F08D10
:1006300000204FF48011064684460EE0171B73EB32
:10064000050705D3121B63EB050306434CEA010CB7
:1006500049084FEA300092185B4150EA0107EDD19A
:1006600052EA030012D082EA040083EA050108433B
:1006700005D0101BAB4106D20122002306E0002268
:100680004FF0004302E06FF0010253101AEB060036
:100690004CEB085110EB0A0041EB0B01BDE8F04DAB
:1006A00000F014B9C10F80EAE0700844CA0796232D
:1006B000002100F0DDB80EB5C10F80EAE0700844FB
:1006C000CA07002140F233438DE80E000A460B466C
:1006D00000F00BF903B000BD00F0004220F0004034
:1006E000C10DC0F3160040F400007F2901DA00209C
:1006F0007047962903DCC1F19601C84001E09639A4
:100700008840002AF4D04042704770B5C1F30A52C5
:1007100001F000450024C1F3130140F2FF3341F41E
:1007200080119A4201DA002070BD40F233439A42B0
:10073000A2F2334203DC524200F06FF800E0904036
:100740002C43F1D0404270BD00F0004230F0004038
:100750000AD0C10D01F56071C0F3160042EA0151E3
:10076000C20840071143704700200146704701F05E
:10077000004330B421F0004150EA010206D00A0DD6
:10078000A2F56072C1F31301002A02DC30BC002024
:100790007047440F44EAC104C100E01830BC00EBCC
:1007A000C25000F05CB80000002801DBC0F100403E
:1007B000002901DBC1F1004181427047002801DBC3
:1007C000C0F10040002901DBC1F1004188427047BF
:1007D00030B50B46014600202022012409E021FA11
:1007E00002F59D4205D303FA02F5491B04FA02F50E
:1007F0002844151EA2F10102F1DC30BD202A04DBE1
:10080000203A00FA02F1002070479140C2F1200323
:1008100020FA03F3194390407047202A04DB203A62
:1008200021FA02F00021704721FA02F3D040C2F110
:1008300020029140084319467047202A06DBCB1757
:10084000203A41FA02F043EAE07306E041FA02F38B
:10085000D040C2F120029140084319467047002958
:10086000A8BF7047401C490008BF20F00100704736
:1008700010B4B0FA80FC00FA0CF050EA010404BF96
:1008800010BC704749B1CCF1200421FA04F411FAEC
:100890000CF118BF012121430843A3EB0C01CB1D30
:1008A0004FEA00614FEA102042BF002010BC7047A1
:1008B00000EBC35010440029A4BF10BC7047401C7B
:1008C000490008BF20F0010010BC704710B5141E8D
:1008D00073F1000408DA401C41F1000192185B41F9
:1008E0001A4301D120F0010010BD2DE9F04D9246D0
:1008F0009B4611B1B1FA81F202E0B0FA80F22032E7
:100900009046FFF77BFF04460F4640EA0A0041EAA3
:100910000B0153465A46084313D0114653EA0100CF
:1009200019D0C8F140025046FFF777FF05460E4642
:10093000504659464246FFF761FF084305D0012063
:1009400004E020463946BDE8F08D0020054346EA24
:10095000E0762C4337430A986305E40AA0EB0800CD
:100960000022FD0A44EA47540A3002D5002001461D
:10097000E9E7010510196941DDE9084500196941F8
:10098000BDE8F04DA2E72DE9F04D00231A461B1AF1
:100990008A4103DB00200146BDE8F08DC1F30A5215
:1009A000C1F3130141F480154FF0000BD10702D1C0
:1009B00000186D41521E0027044640F2FF113846D0
:1009C00001EB620A3E468046024600204FF4801149
:1009D000FFF723FFC2197141BB1846EB0100B4EBCE
:1009E000030C75EB000C04D3E41A65EB0005174605
:1009F0000E46241908F101006D4180463428E3DDDC
:100A0000F91946EB0600091BA84103D24FF0FF324B
:100A1000134601E0002213461BEB070046EB0A5188
:100A2000BDE8F04DFFF752BF064C074D06E0E06809
:100A300040F0010394E8070098471034AC42F6D325
:100A4000FFF758FBC4540008E454000870B58C1834
:100A500010F8015B15F0070301D110F8013B2A11D2
:100A600006D110F8012B03E010F8016B01F8016BBF
:100A70005B1EF9D12B0705D40023521E0DD401F8BB
:100A8000013BFAE710F8013BCB1A921C03E013F884
:100A9000015B01F8015B521EF9D5A142D8D30020B9
:100AA00070BD21B1826842F00102826003E0826879
:100AB00022F001028260704710B504461248844259
:100AC00008D10121401501F037F90021601501F02E
:100AD00033F917E00D48844208D10121001501F0D7
:100AE0002BF90021201501F027F90BE0084884427A
:100AF00008D10121C80301F01FF900214FF4004083
:100B000001F01AF910BD0000002401400028014046
:100B1000003C0140014600208A6802F004020AB14C
:100B2000012000E000207047014600208A6802F0A2
:100B300008020AB1012000E00020704730B50246EB
:100B40000020002350680F4C20400D790C6844EAC7
:100B500005242043506090680B4C2040D1E902549A
:100B60002C434D7944EA450420439060D06A20F438
:100B700070000C7C641EE4B2234340EA0350D06250
:100B800030BD0000FFFEF0FFFDF7F1FF816841F08E
:100B9000080181607047816841F0040181607047FD
:100BA00000B587B001214FF4047001F0B5F82020A2
:100BB000ADF8180000208DF81B0006A9194800F0B8
:100BC00089FA4FF4004001F07BF81748FFF774FFF3
:100BD000002001908DF808008DF809004FF4602086
:100BE00003900020049001208DF8140001A90E4804
:100BF000FFF7A4FF01210C48FFF753FF0A48FFF756
:100C0000C5FF00BF0848FFF78FFF0028FAD106484C
:100C1000FFF7C1FF00BF0448FFF77CFF0028FAD1AF
:100C200007B000BD001001400024014000BFFEE7F6
:100C300010B502460B460020012B08D1002104E02C
:100C4000084C645C60404C1CE1B29142F8DB43B953
:100C5000002104E0044C645C60404C1CE1B2914211
:100C6000F8DB10BDBC540020EC54002008B502F0A5
:100C700005FB009050E000BF0A21684604F08AF8A6
:100C800000BF2648006840F6B831884204DA23489D
:100C90000068401C2149086000F0F4FA1F48006811
:100CA00040F27E41884207DD1D4802681D48016808
:100CB0001D48006800F044F81C4908681C4900F011
:100CC0008BFC0446FFF7EEFC184948601949086898
:100CD000174900F0D5FC0446FFF7E4FC15494860CD
:100CE00015490868124900F01FFD0446FFF7DAFCB9
:100CF000114948604868FFF7EFFC04460D49486811
:100D0000FFF7EAFC054609494868FFF7E5FC064697
:100D10002246294601F0E2F8ADE70000D8000020A5
:100D2000C0000020BC000020B8000020805400203B
:100D3000CDCC4C3E94540020A854002070470000B5
:100D40002DE9F74F8AB08A469346594656480068BF
:100D5000FFF7B0FA05468AF0004429462046FFF71F
:100D600051FA5249886059464F480068FFF7A2FA85
:100D70000446FFF7E9FCCDE9060151464FF07C50EF
:100D8000FFF798FA0590FFF7DFFC04460D460A9836
:100D9000FFF7DAFCCDE904010020454903F0BCF877
:100DA00000224FF08043CDE90001FFF70CFCCDE9B4
:100DB0000201DDE90423FFF794FB064622462B4699
:100DC000FFF7E8FA8046DDE90623FFF7E3FACDE90D
:100DD0000801FFF7CCFC3749886059463248006863
:100DE000FFF768FA0446FFF7AFFCCDE9060151466C
:100DF0004FF07C50FFF75EFA0446FFF7A5FCCDE903
:100E000002010A98FFF7A0FC04460D46002028497D
:100E100003F082F8804600224FF08043FFF7D3FBB7
:100E200081F00041064622462B46FFF75AFBCDE9EA
:100E30000001DDE90223FFF7ADFACDE90401DDE9A8
:100E40000623FFF7A7FACDE90801FFF790FC1A493E
:100E500088601A48006880F000441449886817497F
:100E60000A68214603F0F4F81049886013480068C6
:100E700080F000440F49886810490A68214603F051
:100E8000E7F80C4988600D48006880F000440A4982
:100E900088680A490A68214603F0DAF8064988603A
:100EA0000DB0BDE8F08F0000D40000208054002079
:100EB0000000084094540020A8540020DC000020CA
:100EC00000B587B00121C80200F026FF01214020B3
:100ED00000F022FF0121084600F01EFF254801F026
:100EE00099FA4FF42060ADF8000004208DF803005B
:100EF0006946214800F0EEF80121204800F076F91B
:100F000004A801F091FD0020ADF810004FF6FF702D
:100F1000ADF814000020ADF81600ADF8120004A9D9
:100F2000144801F02FFD00231A460321114801F057
:100F300065FB01A801F0DAFB0A20ADF80C0001A95D
:100F40000C4801F07DFB01210A4801F054FA01210F
:100F5000084801F041FA01221146064801F0CFFB92
:100F60000021044801F0E0FC0121024801F037FAB9
:100F700007B000BD002C014000180140C000160061
:100F800000B587B00121084600F0A6FE012104202B
:100F900000F0C2FE0320ADF8000004208DF803002D
:100FA00069461E4800F096F804A801F03DFD0020B7
:100FB000ADF810004FF6FF70ADF814000020ADF84A
:100FC0001600ADF8120004A94FF0804001F0DAFCE1
:100FD00000231A4603214FF0804001F00FFB01A8C7
:100FE00001F084FB0A20ADF80C0001A9400701F0D4
:100FF00027FB0121880701F0EFF901221146900734
:1010000001F07DFB00214FF0804001F08DFC0121BB
:10101000880701F0E4F907B000BD000000080140B6
:1010200000B587B00121042000F056FE01212020E8
:1010300000F072FE0121084600F06EFE234801F028
:10104000E9F94FF44050ADF8000004208DF803009A
:1010500069461F4800F03EF80121080300F0C6F879
:1010600004A801F0E1FC0020ADF810004FF6FF707D
:10107000ADF814000020ADF81600ADF8120004A978
:10108000124801F07FFC00231A4603210F4801F0AB
:10109000B5FA01A801F02AFB0A20ADF80C0001A95D
:1010A0000A4801F0CDFA0121084801F095F9012222
:1010B0001146064801F023FB0021044801F034FCEE
:1010C0000121024801F08BF907B000BD0008004083
:1010D000001401402DE9F0410246002500260020C1
:1010E00000230024002791F803C00CF00F0591F8AD
:1010F00003C00CF0100CBCF1000F03D091F802C03B
:101100004CEA050591F800C0BCF1000F31D014681D
:1011100000202BE04FF0010C0CFA00F3B1F800C0F6
:101120000CEA03069E4220D183004FF00F0C0CFA0C
:1011300003F7BC4305FA03FC4CEA040491F803C02E
:10114000BCF1280F06D14FF0010C0CFA00FCC2F8DC
:1011500014C00AE091F803C0BCF1480F05D14FF06C
:10116000010C0CFA00FCC2F810C0401C0828D1D3B6
:101170001460B1F800C0BCF1FF0F34DD54680020EA
:101180002EE000F1080C4FF0010808FA0CF3B1F85A
:1011900000C00CEA03069E4221D183004FF00F0CE1
:1011A0000CFA03F7BC4305FA03FC4CEA040491F87B
:1011B00003C0BCF1280F05D100F1080C08FA0CF8A7
:1011C000C2F8148091F803C0BCF1480F07D100F1B8
:1011D000080C4FF0010808FA0CF8C2F81080401C07
:1011E0000828CED35460BDE8F0810000F0B50A466F
:1011F000002300240021002500F00046B6F1004F36
:1012000002D11D4EF16901E01B4E7168C0F3034528
:1012100083B200F44016B6F5401F08D121F070618A
:10122000154E766826F07066134F7E6012E000F46B
:101230008016B6F5801F06D1032606FA05F4A143F1
:1012400041F0706106E0460D360103FA06F6B1433F
:1012500041F0706122B1460D360103FA06F63143C2
:1012600000F00046B6F1004F02D1034EF16101E0FB
:10127000014E7160F0BD0000000001404161704707
:10128000016170472DE9F04100F0ECFD0746FFF7E2
:1012900009FA044600F0D8FD0746FFF703FA0546B1
:1012A00000F0C4FD0746FFF7FDF906461B4920463E
:1012B000FFF700F880461A4801684046FFF72CF80F
:1012C0000746184801683846FEF7F4FF16490860DB
:1012D00012492846FEF7EEFF804611480168404655
:1012E000FFF71AF807460F4801683846FEF7E2FF95
:1012F0000E49086009493046FEF7DCFF8046084881
:1013000001684046FFF708F8074606480168384676
:10131000FEF7D0FF06490860BDE8F0810000C84232
:10132000CC000020D00000208054002094540020E5
:10133000A854002000BFFEE710B500200F49086048
:101340000F48006820F470400D49086008460068A6
:1013500040F44050086000200A49C1F8AC01022066
:1013600001F05AFF012005490860022001F054FFF6
:1013700000200449C1F8A80110BD0000A881214245
:10138000040C01400080214208B50121082000F032
:10139000C3FC4FF44060ADF8000010208DF803004E
:1013A00002208DF8020069460148FFF793FE08BD50
:1013B000000C014010B500200F4908600F4800687C
:1013C00020F470400D4908600846006840F4405021
:1013D000086001200A49C1F8AC01022001F01CFF9D
:1013E000012005490860022001F016FF0020044991
:1013F000C1F8A80110BD0000A8812142040C0140E1
:101400000080214270B5054600241748006820F48A
:101410007040154908600846006840F400400860C4
:10142000002616E0002011490860022001F0F4FEB9
:1014300001200F49C1F8A8016006040E0B487C3852
:10144000006808B1601CC4B2012001F0E5FE701C08
:10145000C6B2082EE6DB15B9FFF7ACFF01E0FFF7D7
:101460006BFF204670BD0000040C0140A8812142A2
:101470000080214270B504461548006820F4704091
:10148000134908600846006840F440500860002096
:1014900010490860002517E0E0090E49091D0860A1
:1014A0006006040E022001F0B7FE01200A49C1F8CF
:1014B000A801022001F0B0FE0020064908600220C9
:1014C00001F0AAFE681CC5B2082DE5DB70BD000066
:1014D000040C0140A88121420080214210B50F4830
:1014E000006820F470400D4908600846006840F428
:1014F0004050086001200A4908600A49C1F8A80163
:10150000042001F089FE002005490860042001F054
:1015100083FE00200349C1F8A80110BD040C01405E
:10152000AC8121420080214210B50F48006820F4B0
:1015300070400D4908600846006840F4405008605B
:1015400000200A4908600A49C1F8AC01042001F0F2
:1015500063FE0120054908600549C1F8AC0104207B
:1015600001F05AFE10BD0000040C0140A881214288
:101570000080214210B500241448006820F4704017
:10158000124908600846006840F4004008600120E5
:101590000F49086001F040FE01200E49C1F8A80182
:1015A00001F03AFE07E0601CC4B2FA2C03DDFFF73D
:1015B000BBFF012010BD0648803800680028F2D12A
:1015C0000349091F086000BFF4E70000040C014054
:1015D000AC812142008021422DE9F04704460D46AE
:1015E00029462046FEF763FE1E490860084601684A
:1015F0001D480068FEF75EFE80461C4801681948D9
:101600000068FEF751FE8146194801684846FEF71A
:1016100051FE07464146FEF7F5FD064615480168AE
:101620003046FEF7EFFD1349086013491148006882
:10163000FFF7C4F802D210480E4908600F490D4860
:101640000068FFF7B1F802D20C480A490860054863
:1016500000680649086007480068FFF73DF8BDE8E4
:10166000F0870000E0000020C8000020E800002013
:10167000C4000020E40000200000E1450000E1C5B6
:101680002DE9F04704460D4629462046FEF70FFE99
:101690001E490860084601681D480068FEF70AFEFA
:1016A00080461C48016819480068FEF7FDFD814628
:1016B000194801684846FEF7FDFD07464146FEF71A
:1016C000A1FD0646154801683046FEF79BFD13490B
:1016D0000860134911480068FFF770F802D21048FB
:1016E0000E4908600F490D480068FFF75DF802D207
:1016F0000C480A4908600548006806490860074820
:101700000068FEF7E9FFBDE8F0870000EC0000206C
:10171000C8000020F4000020C4000020F0000020D9
:101720000000E1450000E1C52DE9F04704460D4603
:1017300029462046FEF7BBFD1E49086008460168A1
:101740001D480068FEF7B6FD80461C480168194830
:101750000068FEF7A9FD8146194801684846FEF772
:10176000A9FD07464146FEF74DFD064615480168AE
:101770003046FEF747FD13490860134911480068D9
:10178000FFF71CF802D210480E4908600F490D48B7
:101790000068FFF709F802D20C480A4908600548BA
:1017A00000680649086007480068FEF795FFBDE835
:1017B000F0870000F8000020C80000200001002091
:1017C000C4000020FC0000200000E1450000E1C54D
:1017D0007CB504466B4606223B21682000F0E2F807
:1017E0000546BDB99DF801009DF8001040EA0120B2
:1017F00000B220809DF803009DF8021040EA01200D
:1018000000B260809DF805009DF8041040EA0120B8
:1018100000B2A08028467CBD7CB504466B460622FB
:101820004321682000F0BEF80546002D58D12D4810
:101830000068B0F57A7F1BDA9DF801009DF8001072
:1018400040EA012000B220809DF803009DF80210BC
:1018500040EA012000B260809DF805009DF8041068
:1018600040EA012000B2A08001201F49087037E043
:101870001C480068B0F57A7F02D100201A49087030
:101880009DF801009DF8001040EA012000B21749C0
:1018900008809DF803009DF8021040EA012000B284
:1018A000124948809DF805009DF8041040EA012087
:1018B00000B20E498880084600880D490988401A00
:1018C00000B220800948408809494988401A00B27E
:1018D00060800648808806498988401A00B2A08046
:1018E00028467CBD0C010020B4000020220100200D
:1018F0001C01002010B580216B2000F0D7F8C82013
:1019000001F06AFC00216B2000F0D0F8012000F00B
:101910008BF8002000F080F8322000F0AAF80021B7
:10192000382000F0C3F800216A2000F0BFF8002141
:10193000232000F0BBF88021372000F0B7F8752095
:1019400000F013F80446682C0BD101216B2000F045
:10195000ADF800216C2000F0A9F8322000F089F8E1
:1019600001E0012010BD0020FCE770B50446FFF740
:10197000B5FDD020FFF77EFDFFF7FCFD2046FFF709
:1019800079FDFFF7F7FDFFF7A9FDD120FFF772FD05
:10199000FFF7F0FD0020FFF735FD0546FFF7C4FD1A
:1019A000284670BD2DE9F04106460F4614461D46F7
:1019B000FFF794FD002141EA4601C8B2FFF75AFD46
:1019C000FFF7D8FD20B1FFF7AFFD0120BDE8F081A2
:1019D0003846FFF74FFDFFF7CDFDFFF77FFD0121F3
:1019E00001EB4601C8B2FFF745FDFFF7C3FD0DE06F
:1019F000012C04D10020FFF705FD287003E0012031
:101A0000FFF700FD2870601EC4B26D1C002CEFD1E2
:101A1000FFF78AFD0020D9E710B50446E006010E65
:101A20001C2000F043F810BD10B50446E006010E7E
:101A30001B2000F03BF810BD70B504460025BC2CFF
:101A400001DB012510E0622C01DB02250CE02A2CD1
:101A500001DB032508E0142C01DB042504E00A2C3B
:101A600001DB052500E0062529461A2000F01EF8B6
:101A700070BD70B50446B4F57A7F01DD4FF47A7419
:101A8000042C00DA04244FF47A7090FBF4F0401E2A
:101A9000C5B22946192000F009F80546264604EB90
:101AA000D671C1F34F00FFF7C7FF70BD70B5054693
:101AB0000C46FFF713FDD020FFF7DCFCFFF75AFDC3
:101AC00018B1FFF731FD012070BD2846FFF7D2FCA9
:101AD000FFF750FD2046FFF7CDFCFFF74BFD18B197
:101AE000FFF722FD0120EFE7FFF71EFD0020EBE7E7
:101AF00008B501F0C3FB00901BE000BF0A21684657
:101B000003F048F900BF0B480068B0F57A7F0ADAA5
:101B100008480068401C07490860074807490A68E8
:101B20000260898881800648FFF752FE0348FFF76C
:101B300073FEE2E70C0100201C01002010010020D0
:101B40001601002000BFFEE708B50121402000F08B
:101B5000E3F840F23C50ADF8000010208DF803008F
:101B600003208DF8020069460148FFF7B3FA08BD6B
:101B7000001801407047000070B5002100230F22BB
:101B8000C47804B3154C246804F4E064C4F5E0643C
:101B9000210AC1F10403CA40447804FA03F18478AD
:101BA0001440214309010E4C0678A155047804F035
:101BB0001F050124AC4005786D11AD0005F1E0254D
:101BC000C5F8004109E0047804F01F050124AC4089
:101BD000044D0678761145F8264070BD0CED00E006
:101BE00000E400E080E100E002490143024A1160A4
:101BF000704700000000FA050CED00E030B589B038
:101C000005460C460121102000F086F80121022033
:101C100000F062F80121084600F07EF818208DF8E7
:101C200023004FF46070ADF8200003208DF82200EF
:101C300008A92048FFF74EFA01211F48FFF7D6FAFE
:101C4000ADF81850ADF814400020ADF81A00ADF80A
:101C5000160005A9194800F095FE6020ADF80400B3
:101C60000020ADF80A00ADF80C000120ADF8060028
:101C700001A9124800F04CFD01A9104800F0A8FD90
:101C800001A90E4800F0FEFD08210C4800F092FD6D
:101C900008210A4800F0ECFD0821084800F030FE59
:101CA0000121064800F08CFB0121044800F097FB5D
:101CB00009B030BD00100140000C1A0000040040C3
:101CC00001460020034A506820F440400843506019
:101CD000704700000010024029B1064AD269024351
:101CE000044BDA6104E0034AD2698243014BDA61B2
:101CF000704700000010024029B1064A12690243F1
:101D0000044B1A6104E0034A12698243014B1A61D1
:101D1000704700000010024029B1064A9269024350
:101D2000044B9A6104E0034A92698243014B9A6131
:101D3000704700000010024029B1064AD2680243F1
:101D4000044BDA6004E0034AD2688243014BDA6054
:101D5000704700000010024030B50021002200242E
:101D600000232D4D6D6805F00C0121B1042905D02B
:101D7000082923D105E0294D056022E0274D0560A3
:101D80001FE0254D6D6805F47012234D6D6805F454
:101D90008034022505EB92421CB9214D5543056064
:101DA0000BE01D4D6D6805F400351DB11C4D55430C
:101DB000056002E0194D5543056002E0174D0560CE
:101DC00000BF00BF144D6D6805F0F0010909154D05
:101DD0006B5C0568DD4045600F4D6D6805F4E061A2
:101DE000090A104D6B5C4568DD4085600A4D6D68E1
:101DF00005F46051C90A0B4D6B5C4568DD40C56058
:101E0000054D6D6805F44041890B074D6B5CC56855
:101E1000B5FBF3F5056130BD0010024000127A00F9
:101E200000093D0014000020240000200549088816
:101E3000B0F5704F02DBA0F57F40FF380021014A6A
:101E400011807047242C01404FF08041888CB0F500
:101E5000704F02DBA0F57F40FF3800214FF0804239
:101E60009184704705490888B0F5704F02DBA0F5F2
:101E70007F40FF380021014A11807047240800404C
:101E80002DE9F04104460D4616461F460E48C46033
:101E9000056046608760014649688900024612680D
:101EA00001FB02F0FEF7FEFB08490860064988685E
:101EB0000749FEF7FFF9074908600348C06806496B
:101EC0000860BDE8F08100000C550020CC00002027
:101ED000560E4940D0000020D40000202DE9F041EA
:101EE00006460C461546002E08DB04212C48FFF759
:101EF000C7F908212A48FFF7C1F909E0002E07DADF
:101F000008212748FFF7BCF904212548FFF7B6F957
:101F1000304601F0DDF987B23946224800F001FD74
:101F2000002C08DB10211E48FFF7AAF920211C48CD
:101F3000FFF7A4F909E0002C07DA20211848FFF781
:101F40009FF910211648FFF799F9204601F0C0F9D2
:101F500087B23946134800F0E2FC002D0ADB4FF44B
:101F600080710F48FFF78CF94FF480610C48FFF740
:101F700085F90BE0002D09DA4FF480610848FFF77E
:101F80007FF94FF480710648FFF778F9284601F091
:101F90009FF987B23946034800F0BFFCBDE8F081E5
:101FA000001801400004004010B500F001F810BD19
:101FB0000CB50020019000903348006840F4803058
:101FC0003149086000BF3048006800F400300090DC
:101FD0000198401C0190009818B90198B0F5A06FC5
:101FE000F1D12948006800F4003010B101200090C0
:101FF00001E0002000900098012843D123480068A8
:1020000040F01000214908600846006820F00300F5
:1020100008600846006840F0020008601A484068FE
:10202000194948600846406848600846406840F4DE
:10203000806048600846406820F47C10486008468C
:10204000406840F4E81048600846006840F080703E
:10205000086000BF0C48006800F000700028F9D04C
:102060000948406820F00300074948600846406876
:1020700040F00200486000BF0348406800F00C00D8
:102080000828F9D10CBD00000010024000200240D9
:10209000042808D14FF0E021096941F004014FF014
:1020A000E022116107E04FF0E021096921F004010D
:1020B0004FF0E0221161704710B502F0DBFE0128FD
:1020C00002D002F053FC04E002480068401C0149C1
:1020D000086010BDA800002010B51348006840F04B
:1020E00001001149086008464068104908400E493F
:1020F0004860084600680E4908400B4908600846D9
:10210000006820F4802008600846406820F4FE0043
:1021100048604FF41F008860FFF746FF4FF00060F3
:102120000449086010BD0000001002400000FFF8E4
:10213000FFFFF6FE08ED00E0F0B50C461546002264
:102140000021068C4FF6FE773E400684028B018C00
:102150004FF60C7632407E1C06EA03162E433243BD
:10216000104EB0420ED0104EB0420BD0B0F1804FA6
:1021700008D00E4EB04205D00D4EB04202D00D4EEA
:10218000B04206D14FF6FD76314044F001063143AE
:1021900005E04FF6F576314044F001063143028305
:1021A0000184F0BD002C01400034014000040040D7
:1021B00000080040000C0040F0B50C461546002217
:1021C00000210026078C4FF6EF7C07EA0C070784F6
:1021D000028B018C4FF6FF7707EA041640F6FF47A3
:1021E0003A404FF6FF7707EA03373A434FF6FF7757
:1021F00007EA05273A43114FB8420ED0104FB842B4
:102200000BD0B0F1804F08D00E4FB84205D00E4F22
:10221000B84202D00D4FB84206D14FF6DF773940B1
:1022200046F01007394305E04FF65F77394044F038
:102230001007394302830184F0BD0000002C0140E7
:10224000003401400004004000080040000C004041
:10225000F0B50C461546002200210026078C4FF6EB
:10226000FF6C07EA0C070784828B018C4FF6FF771F
:1022700007EA04264FF60C773A404FF6FF7707EA55
:1022800003172F433A43114FB8420ED0104FB842B4
:102290000BD0B0F1804F08D00E4FB84205D00E4F92
:1022A000B84202D00D4FB84206D14FF6FF57394021
:1022B00046F48077394305E04FF2FF57394044F444
:1022C0008077394382830184F0BD0000002C0140F7
:1022D000003401400004004000080040000C0040B1
:1022E000F0B50C461546002200210026078C4EF65C
:1022F000FF7C07EA0C070784828B018C4FF6FF777F
:1023000007EA043640F6FF473A404FF6FF7707EA00
:1023100005273A434FF6FF7707EA03373A43114F51
:10232000B8420ED0104FB8420BD0B0F1804F08D059
:102330000E4FB84205D00E4FB84202D00D4FB842F2
:1023400006D14DF6FF77394046F48057394305E012
:1023500047F6FF57394044F480573943828301845C
:10236000F0BD0000002C014000340140000400409A
:1023700000080040000C0040044800880348008822
:1023800020F001000149088070470000102C014036
:102390004FF08040008A4FF08040008A20F001001A
:1023A0004FF0804108827047044800880348008845
:1023B00020F001000149088070470000100800402B
:1023C00021B1028842F08002028004E002884FF6C8
:1023D0007F731A4002807047CA430282704721B15E
:1023E000028842F00102028004E002884FF6FE7388
:1023F0001A400280704731B1B0F8442042F40042E4
:10240000A0F8442005E0B0F84420C2F30E02A0F882
:102410004420704710B504466848844208D1012121
:10242000C014FFF789FC0021E014FFF785FCC4E02D
:10243000B4F1804F08D101210846FFF75DFC00216F
:102440000120FFF759FCB8E05D48844208D1012122
:102450000220FFF751FC00210220FFF74DFCACE009
:102460005848844208D101210420FFF745FC00218F
:102470000420FFF741FCA0E05348844208D1012129
:102480000820FFF739FC00210820FFF735FC94E015
:102490004E48844208D101211020FFF72DFC002175
:1024A0001020FFF729FC88E04948844208D1012127
:1024B0002020FFF721FC00212020FFF71DFC7CE0FD
:1024C0004448844208D101214014FFF735FC002123
:1024D0006014FFF731FC70E03F48844209D10121CC
:1024E000C804FFF729FC00214FF40020FFF724FC6B
:1024F00063E03A48844209D101210805FFF71CFC3A
:1025000000214FF48010FFF717FC56E03448844256
:1025100009D101214805FFF70FFC00214FF40010FD
:10252000FFF70AFC49E02F48844208D101214020EE
:10253000FFF7E2FB00214020FFF7DEFB3DE02A48E9
:10254000844208D101218020FFF7D6FB00218020A2
:10255000FFF7D2FB31E02548844208D101218015E4
:10256000FFF7CAFB0021A015FFF7C6FB25E02048B6
:10257000844209D101210804FFF7DEFB00214FF45A
:102580008030FFF7D9FB18E01A48844209D10121B5
:102590004804FFF7D1FB00214FF40030FFF7CCFBDC
:1025A0000BE01548844208D101218804FFF7C4FBE1
:1025B00000214FF48020FFF7BFFB10BD002C01402D
:1025C0000004004000080040000C004000100040E3
:1025D0000014004000340140004C01400050014014
:1025E0000054014000180040001C00400020004042
:1025F000004001400044014000480140F0B50C4655
:1026000015461E460021002200230189028B038CFF
:102610004FF6F877394021434FF6FC473A4040F2F5
:1026200001173A434FF6DD773B404FF6FF7707EA55
:1026300006172F433B43018102830384F0BD000052
:1026400070B505460C46244885420ED02348854285
:102650000BD0B5F1804F08D02148854205D02148E4
:10266000854202D02048854200D100E000BF20888A
:1026700050B92389A28861882846FFF75DFDE1886B
:10268000284600F053F925E0208804280AD1238940
:10269000A28861882846FFF78FFDE188284600F070
:1026A0004EF917E0208808280AD12389A28861887A
:1026B0002846FFF7CDFDE188284600F04DF909E0F6
:1026C0002389A28861882846FFF70AFEE188284608
:1026D00000F04BF970BD0000002C014000340140B7
:1026E0000004004000080040000C00400021018070
:1026F0004180012181800021C180018170471AB190
:1027000083890B43838102E083898B4383817047F4
:1027100070B5002400220023058C4FF6EF7635407B
:102720000584028C8388048B48F6FF752C404FF695
:10273000FF452C400D884FF6FF7606EA05252C4311
:102740004FF6DF752A400D8906EA05152A434D88A4
:1027500006EA05152A43154DA84202D0144DA84299
:102760001DD14FF67F752A404D894FF6FF7606EA58
:1027700005152A434FF6BF752A408D8806EA0515D0
:102780002A434FF6FF352B404FF2FF752B408D89C2
:1027900006EA85052B43CD8906EA85052B43838010
:1027A0000483CD880587028470BD0000002C0140A1
:1027B000003401400A460021018B4FF2FF7319409B
:1027C0004FF6FF7303EA02231943018370470000A9
:1027D00070B5002400220023058C4FF6FF663540BB
:1027E0000584028C8388848B4FF68F752C404FF6BE
:1027F000FC752C400D882C434FF6FF552A400D895F
:102800004FF6FF7606EA05252A434D8806EA052598
:102810002A43154DA84202D0144DA8421DD14FF2B3
:10282000FF752A404D894FF6FF7606EA05252A43B3
:102830004FF6FF352A408D8806EA05252A434EF6D5
:10284000FF752B404DF6FF752B408D8906EA051567
:102850002B43CD8906EA05152B4383808483CD88DD
:102860008587028470BD0000002C014000340140C7
:102870000A460021818B4FF6F7731940114381837B
:102880007047000070B5002200230024058C4EF62E
:10289000FF7635400584038C8488828B48F6FF756B
:1028A0002A404FF6FF452A400D884FF6FF7606EA8C
:1028B00005252A434DF6FF752B400D8906EA05359F
:1028C0002B434D8806EA05352B430B4DA84202D019
:1028D0000A4DA84208D14BF6FF752C408D894FF662
:1028E000FF7606EA85152C4384808283CD88A0F884
:1028F0004050038470BD0000002C014000340140B2
:102900000A460021818B4FF2FF7319404FF6FF7387
:1029100003EA022319438183704701877047818747
:102920007047A0F84010704781847047028B4FF6C3
:10293000F3731A400283028B0A4302837047028BAF
:102940004FF2FF331A400283028B4FF6FF7303EA04
:1029500001231A4302837047828B4FF6F3731A40A8
:102960008283828B0A4382837047828B4FF2FF33CC
:102970001A408283828B4FF6FF7303EA01231A43C6
:1029800082837047002202881D4B98420ED01D4B57
:1029900098420BD0B0F1804F08D01B4B984205D025
:1029A0001A4B984202D01A4B984204D14FF68F73BB
:1029B0001A404B881A43174B984207D0164B98423F
:1029C00004D04FF6FF431A40CB881A4302808B880D
:1029D00083850B8803850A4B98420BD0094B98429C
:1029E00008D00E4B984205D00D4B984202D00D4BAB
:1029F000984201D10B7A038601238382704700003D
:102A0000002C014000340140000400400008004058
:102A1000000C004000100040001400400040014045
:102A200000440140004801404FF6FF7181800021C1
:102A30000180C180418001727047000010B540F2F2
:102A40002551274800F076F8002846D0244800F0A9
:102A50002DF9C4B22348006840F6C411884201DA57
:102A6000002010BD20482149097844547B2C03D014
:102A70001E480078002805DD1C480078401C1B49D2
:102A8000087002E0002019490870184800780B28E7
:102A900023D10020154908701348807A7D281CD165
:102AA00000210920FEF7C4F80F49497A884214D161
:102AB0000D4A1179D07800F001F90D4908600A4AF1
:102AC0009179507900F0FAF80A490860064A117ABB
:102AD000D07900F0F3F8084908600020C1E7000051
:102AE00000380140D8000020EC54002028010020CC
:102AF000B8000020BC000020C000002000B500226B
:102B000000BF05E00449885C01F00AFB501CC2B21A
:102B1000182AF7DB00BD0000BC54002021B18289D7
:102B200042F40052828104E082894DF6FF731A401C
:102B30008281704770B502460024002300250020E2
:102B400040F66A16B14200D100BFC1F3421501F050
:102B50001F03012606FA03F3012D02D196893340A3
:102B600006E0022D02D1168A334001E0968A3340F6
:102B70000C12012606FA04F41688344013B10CB185
:102B8000012000E0002070BDF0B5034600240026BF
:102B90000025002040F66A17B94200D100BF184650
:102BA000C1F3421401F01F06012707FA06F5012CB4
:102BB00001D10C3004E0022C01D1103000E01430BF
:102BC0001AB107682F43076002E00768AF43076048
:102BD000F0BD00002DE9F04786B005460E46002402
:102BE000A24600BFA1460027B08900B100BF2F4612
:102BF0002C8A4CF6FF700440F08804432C82AC8988
:102C00004EF6F3100440B0883189084371890843B7
:102C10000443AC81AC8A4FF6FF400440B0890443C2
:102C2000AC8201A8FFF798F81F48874202D1DDF86F
:102C300010A001E0DDF80CA0A88900F4004040B12C
:102C40000AEBCA0000EB0A1031684900B0FBF1F84A
:102C500007E00AEBCA0000EB0A1031688900B0FBFC
:102C6000F1F86420B8FBF0F004012009642101FBB5
:102C70001089A88900F4004040B1322000EBC9005F
:102C8000B0FBF1F000F00700044308E0322000EB55
:102C900009106421B0FBF1F000F00F0004432C8117
:102CA00006B0BDE8F0870000003801400146888882
:102CB000C0F30800704700BFFEE700002DE9FF5F8A
:102CC0000446894609EB04200FFA80FA4FF47A7023
:102CD0009AFBF0F100FB11AB5846FDF7ECFC074600
:102CE0000C4A0D4BFDF7FDFB05460E464FF47A707E
:102CF0009AFBF0F73846FDF7DEFC2A463346CDE96D
:102D00000001FDF747FBCDE90201FDF730FD04B0FE
:102D1000BDE8F09FFCA9F1D24D62503F0FB4054BC6
:102D200010B503A9044A029800F01EF810BC5DF823
:102D300014FB000061320008AC00002002E008C86B
:102D4000121F08C1002AFAD170477047002001E025
:102D500001C1121F002AFBD1704700000149086021
:102D600070470000300100202DE9FF4F8BB09A46DC
:102D70000F460546002606E025280BD052460D9941
:102D800090476D1C761C28780028F5D10FB030468E
:102D9000BDE8F08F0024A0460122604900E0044312
:102DA00015F8013F203B02FA03F00842F7D12878DA
:102DB0002E2817D115F8010F44F004042A280ED04C
:102DC0006FF02F022878A0F1300109290AD808EB0A
:102DD000880102EB410100EB01086D1CF2E757F896
:102DE000048B6D1C287869283ED006DC0028CDD0E5
:102DF00063280BD0642804D136E0732810D07528DE
:102E00004BD052460D999047761C85E017F8040B7D
:102E10008DF8000000208DF80100E946012003E054
:102E200057F8049B4FF0FF3061074FF0000401D4C6
:102E30000AE0641C44450DDA8442FADB19F80410F8
:102E40000029F6D106E0641C8442FCDB19F804106A
:102E50000029F8D1264404E019F8010B52460D99D7
:102E60009047641EF8D257E001CF4FF00A0B0028BC
:102E700002DA40422D2102E0210504D52B218DF8F4
:102E80002410012103E0E10705D02021F7E70DF12F
:102E9000200908910CE00021F9E701CF4FF00A0B5F
:102EA000F9E75946FDF794FC01F1300209F8012DCC
:102EB0000028F6D1ADEB090000F1200B600701D42A
:102EC0004FF00108D84502DDA8EB0B0000E0002020
:102ED0008046002406E009A85246005D0D999047FF
:102EE000641C761C08988442F5DB04E030205246CE
:102EF0000D999047761CB8F10001A8F10108F5DCA6
:102F000005E019F8010B52460D999047761CBBF16C
:102F10000001ABF1010BF4DC6D1C34E70928010062
:102F200008B500F0ABF9009009E000BF3221684617
:102F300001F030FF00BF00F003F8FFF7DFFDF4E71A
:102F40002DE9FC5F7B20804908767D217E4880F852
:102F50002E1000207D4900F0DFFF804600224FF058
:102F60008043FDF730FB7A4ACDE900011168794AC8
:102F70001068FDF799F981464FF08041FDF7CCF9D3
:102F80008046FDF7E1FB0646DDE90023FDF71BFB6C
:102F900082460022704BFDF7A4FA0446FDF7B5FB0C
:102FA00001B2694841836D48006880F000494FF0E4
:102FB00080414846FDF77EF98046664801684046F4
:102FC000FDF720F90746624801683846FDF71AF90F
:102FD00006466349FDF7A0F905466249FDF76AF91F
:102FE0000446FDF779FB01B257488183594A1168BD
:102FF0005A4A1068FDF706F9804655480168404670
:10300000FDF700F904465649FDF786F9074656488C
:1030100001683846FDF780F906465249FDF74AF93E
:103020000546FDF759FB01B24748C1834F48418827
:10303000454841844D480088404201B2424881845D
:103040004A4881884048C184494841883E480185B2
:1030500047480088404201B23B48418545480078D6
:1030600020B9434881883848818502E000213648EC
:1030700081853C4940480068FDF71CF90446FDF78E
:103080002BFB01B230480184007E2F49087039487B
:10309000007848700846408B000A88700846807E99
:1030A000C8700846808B000A08710846007F487186
:1030B0000846C08B000A88710846807FC8710846A0
:1030C000408C000A0872084690F8220048720846B0
:1030D000808C000A8872084690F82400C87208465E
:1030E000C08C000A0873084690F82600487308460A
:1030F000008D000A8873084690F82800C8730846B7
:10310000408D000A0874084690F82A004874084662
:10311000808D000A8874084690F82C00C874084610
:10312000008C000A0875084690F8200048750121B7
:103130001620FDF77DFD04498875084690F82E009D
:10314000C875BDE8FC9F0000BC540020000008408A
:10315000A85400209454002000408F408054002048
:103160000000404000007A44D400002016010020F6
:1031700010010020B40000200401002010B504203C
:10318000FEF786FF104800681049B0FBF1F01049C7
:1031900008700D4800680D49B0FBF1F44FF47A70E7
:1031A000444301200B4908804FF0E020006940F0C3
:1031B00002004FF0E021086108464461006940F0D8
:1031C0000100086110BD00000000002040420F0017
:1031D000A4000020A600002070B5044601F04AFEBD
:1031E000012810D00B480088844206D30948008883
:1031F000B4FBF0F5284601F023F906480088B4FB3B
:10320000F0F100FB11444FF47A7104FB01F000F07F
:1032100003F870BDA600002070B5034600224FF0F1
:10322000E02675690D4E367803FB06F44FF0E02674
:10323000B16910E04FF0E026B06988420BD08842B7
:1032400002D20E1A324402E02E1A0E4432440146D3
:10325000A24200D300E0EDE700BF70BDA400002053
:1032600000BF054A128802F04002002AF9D0C2B21B
:10327000014B1B1D1A8070470044004010B501F03F
:10328000F9FD012802D001F005FE10BD01480068DB
:10329000FBE70000A80000201CB500F0ABFE0748CB
:1032A000042100238A01CDE9001005A1074801F09F
:1032B0003DFD01F00BFA00201CBD00002C01002098
:1032C00073746172745F7461736B0000653F000812
:1032D0000146002901DA484200E008467047000034
:1032E0002DE9F04105460E46264807682648006845
:1032F000001D00F023FF50B92348006890F82C10FF
:103300000120884021490968814320480160681CE8
:10331000D8B9D6B11E4948681B49096888601A495E
:1033200082680968CA6018490968091D8268516085
:1033300015490968091D8160154A134909684A61E0
:1033400011460968491C11601AE07C190E48006892
:103350004460BC4207D20C480168091D0D48006852
:1033600000F016FF0CE008480168091D0A480068D3
:1033700000F00EFF09480068844201D2074804604B
:10338000BDE8F081640000205000002068000020AB
:1033900044540020580000205400002080000020E9
:1033A00010B5044600F01AFF31480068401C30494F
:1033B00008603048006840B92E480460084600683C
:1033C00001280DD100F0FEF90AE02B48006838B959
:1033D00028480068C06AE16A884201D8254804602C
:1033E00026480068401C254908600846006860645B
:1033F00094F82C100120884021490968084320498D
:103400000860E16A01EB81011E4A02EB8101486814
:10341000A0608268E260211D826851608160E16A7B
:1034200001EB8101174A02EB81026261E16A01EB63
:103430008101144A52F82110491CE26A02EB82020F
:10344000104B43F8221000F003FF0B48006868B1EE
:1034500008480068C06AE16A884207D24FF080508D
:1034600009490860BFF34F8FBFF36F8F10BD000095
:1034700060000020500000206C0000207C00002034
:10348000680000207451002004ED00E010B500F049
:10349000A5FE10480068D0B90F4800F069FE0F483B
:1034A00000F066FE0C480E4908600C480D490860A3
:1034B00000221021052001F073FA06490860084631
:1034C000006820B108A10348006800F053FF00F035
:1034D000BFFE10BD98000020585400206C540020FE
:1034E0009000002094000020546D725100000000F4
:1034F00010B516E000F072FE0C48C068C468201DCC
:1035000000F01CFE0A480068401E0949086009488E
:103510000068401E0749086000F09AFE204600F04F
:103520005FF8044800680028E4D110BD3054002042
:10353000600000205C00002070B504460D46206C41
:1035400070B1216CE0680144E160D4E90210884266
:1035500001D32168E1602846226CE168FCF72EFE69
:1035600070BD2DE9F04104460F4615464FF00008A6
:10357000A66B206C48B9206800282CD1A06801F007
:103580007BFD80460020A06025E07DB93946226C95
:103590006068FCF713FE216C606808446060D4E941
:1035A0000101884217D32068606014E03946226C1C
:1035B000E068FCF703FE216CE068411AE1602168D5
:1035C000E068884203D2216CA068411AE160022DB4
:1035D00001D106B1761E701CA0634046BDE8F081A3
:1035E00010B50446206B00F061FE204600F05EFE40
:1035F00010BD00000146084A126812680AB901228B
:1036000000E000220A600A6822B9034A1268D26800
:10361000106800E0002070479000002030B54FF4A3
:10362000A043154800F007042CB1C01D20F007008E
:10363000114C041B1B1B0246104C226000240F4D32
:103640006C60D018083820F007000D4C2060002472
:103650000B4D2D686C600A4D2D682C601146441A84
:103660004C60074C24680C60064D4C682C60064D7D
:103670004C682C6030BD0000340100202800002080
:1036800030000020380000203400002000BFFFF789
:103690002FFF064800680128F9D94FF080500449EF
:1036A0000860BFF34F8FBFF36F8FF0E774510020B6
:1036B00004ED00E02DE9F04106460D461746984618
:1036C000069C0DB9246000E02760E66325640121B3
:1036D000204601F0A7F984F850800020A064BDE8DE
:1036E000F08100002DE9F05F82460F4690469B4630
:1036F0000A9E0C9C4FEA8801A522206BFCF770FD06
:10370000A8F10100216B01EB800929F0070909F0FC
:10371000070008B9012000E0002028B940F25D321E
:103720001EA124A0FFF7FAFA7FB1002507E0795D1A
:1037300004F134004155785D00B902E06D1C102D94
:10374000F5D300BF002143200155202E01D20120D6
:1037500000E0002028B940F2923210A115A0FFF736
:10376000DDFA202E00D31F26E662E664201D00F05D
:103770000CFD04F1180000F008FD2461C6F12000E2
:10378000A06164625A465146484600F0B3FB20608F
:103790000B9808B10B980460BDE8F09F4672656510
:1037A00052544F535C7372635C7461736B732E631A
:1037B000000000004572726F723A25732C25640D6B
:1037C0000A00000010B5002407E004EB84010F4A52
:1037D00002EB810000F0CCFC641C202CF5D30C48DB
:1037E00000F0C6FC0B4800F0C3FC0B4800F0C0FC26
:1037F0000A4800F0BDFC0A4800F0BAFC0448094938
:10380000086004480849086010BD00007451002099
:10381000F4530020085400201C5400203054002091
:1038200044540020540000205800002010B50146E8
:10383000164800E0006803688B42FBD302464368E9
:1038400013448B4204D143684C68234443600146CF
:103850000A464B6813440468A34211D10C4C036818
:103860002468A34208D04B680468646823444B6012
:1038700003681B680B6005E0054B1B680B6001E0EB
:1038800003680B60884200D0016010BD2800002052
:10389000300000202DE9F04104460D4616461F4633
:1038A0004FF0000865602461B5420CD8F01BA16997
:1038B000884202D34FF0010811E0211D0948006839
:1038C00000F066FC0BE0BE4204D2BD4202D34FF0D2
:1038D000010804E0211D0448006800F059FC40463E
:1038E000BDE8F081940000209000002070B50546EE
:1038F00000F074FCA86B08B9012400E0002400F07B
:10390000A7FC204670BD0000F1B50098846C00262D
:103910002CB940F6E33223A128A0FFF7FFF9A06BF2
:10392000E16B884201D2012000E0002028B940F676
:10393000E4321CA121A0FFF7F1F9A06BE16B8842F2
:103940002DD294F94550002269462046FFF709FE22
:103950000646681C60B9606A08B9012000E00020D2
:10396000E0B904F1240001F009FCB8B1012615E02A
:1039700000F0F8FB0746BD420FD27F2D01D0012099
:1039800000E0002028B940F6044206A10BA0FFF792
:10399000C5F9681C40B284F8450000BF00BF30463E
:1039A000F8BD00004672656552544F535C737263F4
:1039B0005C71756575652E63000000004572726F5D
:1039C000723A25732C25640D0A00000070B5054677
:1039D0000E460E480068C068C468201D00F0AEFBAB
:1039E00094F8280000F0040028B132462946204609
:1039F00000F0F8F805E094F8280000F0FE0084F8E4
:103A000028002046216A884770BD000090000020F1
:103A100070B586B08AE0029800280CDA03AE2EB9A1
:103A200040F20B3247A14DA0FFF778F9D6E900200C
:103A3000B168904700BF0298002877DB049C60695A
:103A400008B9012000E0002010B9201D00F076FB2D
:103A500001A800F0F3F8054602980A2864D2DFE8CE
:103A600000F06305072E365306082F3700BF00BF4E
:103A700000BF94F8280040F0010084F82800039863
:103A8000A269811803462A462046FFF703FFA8B122
:103A900094F8280000F0040038B10398A269811856
:103AA0002A46204600F09EF805E094F8280000F031
:103AB000FE0084F828002046216A884735E000BFD0
:103AC00094F8280000F0FE0084F828002DE000BFE4
:103AD00094F8280040F0010084F828000398A061C1
:103AE000A06908B1012000E0002028B940F25E3250
:103AF00014A11AA0FFF712F9A06941192B462A4612
:103B00002046FFF7C7FE10E094F8280000F00200FE
:103B100018B9204600F0CAFB05E094F8280000F030
:103B2000FE0084F8280000E000BF00BF002202A9C8
:103B30000E48006800F0EEFF00287FF46CAF06B07E
:103B400070BD00004672656552544F535C737263DA
:103B50005C74696D6572732E630000004572726F4C
:103B6000723A25732C25640D0A000000980000208D
:103B7000F8B505460C4600F005FE684600F05EF814
:103B80000646009820BB44B9B54206D801F096FB22
:103B900031462846FFF71AFF1CE03CB10E4800688A
:103BA000006808B9012000E000200446A91B224655
:103BB0000A48006800F01EFC01F080FB50B94FF08D
:103BC000805007490860BFF34F8FBFF36F8F01E04C
:103BD00001F074FBF8BD0000940000209800002064
:103BE00004ED00E070B504460D46164604E0A069F9
:103BF00005442046216A8847A06941192B46324670
:103C00002046FFF747FE0028F1D170BD0948006843
:103C1000006808B9012000E0002020B14FF0FF301B
:103C20000549086005E003480068C068006802496B
:103C300008607047540000208000002070B50446E2
:103C400001F028F9054607480068854204D200F0D3
:103C50000BF80120206001E0002020600148056091
:103C6000284670BDA000002070B508E00D4800682F
:103C7000C06804684FF0FF312046FFF7A7FE0948EF
:103C80000068006808B9012000E000200028EDD09D
:103C90000448056804480068024908600248056055
:103CA00070BD000090000020940000200B480068C8
:103CB000401C08B9012000E0002020B9D12208A151
:103CC0000DA0FFF72BF800BF502080F31188BFF341
:103CD0004F8FBFF36F8F00BF00BFFEE7440000208F
:103CE0004672656552544F535C706F72745C706FAE
:103CF00072742E63000000004572726F723A257371
:103D00002C25640D0A00000008B500BF6846FFF7C7
:103D100071FC044620460099FFF72AFFFFF778FE62
:103D2000F4E770B5044600F059FA94F9455019E0EB
:103D3000A06C30B12046FFF7E7FD88B100F054FCDD
:103D40000EE0606A08B9012000E0002038B904F1F3
:103D5000240001F013FA18B100F046FC00E003E083
:103D6000681E45B2002DE3DC00BFFF2084F845004B
:103D700000F06EFA00F032FA94F9445010E0206935
:103D800008B9012000E0002048B904F1100001F05A
:103D9000F5F908B100F028FC681E45B200E001E02A
:103DA000002DECDC00BFFF2084F8440000F050FA46
:103DB00070BD00002DE9F04705464FF0000900F006
:103DC000E1FC3D48006808B9FFF728FC75B105F033
:103DD0000700C0F11008C8F1FF30A84201D201204D
:103DE00000E0002008B9454400E00025012000EB78
:103DF000E57000284DD0002D4BD03048006885423A
:103E000047D82F4E3046046801E026462468606893
:103E1000A84202D220680028F7D1274800688442CF
:103E200037D0306800F10809206830606068401BB6
:103E3000102813D9671907F0070008B9012000E01E
:103E4000002020B9DC221FA124A0FEF767FF6068D4
:103E5000401B786065603846FFF7E8FC17496068EA
:103E60000968081A15490860084600681F4909686A
:103E7000884203D2114800681C490860606840F01D
:103E8000004060600020206019480068401C18490C
:103E9000086001F013FA09F0070008B9012000E0FA
:103EA000002028B94FF48E7206A10CA0FEF736FF51
:103EB0004846BDE8F08700003000002034000020B4
:103EC000280000204672656552544F535C706F7233
:103ED000745C686561705F342E6300004572726FB8
:103EE000723A25732C25640D0A000000380000206A
:103EF0003C000020001F4FF080730360001F21F082
:103F000001030360001F034B036014380260203874
:103F100070470000AD3C00082DE9F04106460F4611
:103F2000FCF731FD041E0D4618BF0120284320F088
:103F30000040C0F17F6000F1E040C00F0ED0301CA7
:103F400018BF0120384320F00040C0F17F6000F12D
:103F5000E040C00F04BF0120FEF700FF20462946C5
:103F6000BDE8F0811CB5044600F038F900200421BA
:103F70000346CA01CDE900100FA1134800F0D6FE98
:103F80000020032103464FF48072CDE900100FA1F9
:103F9000124800F0CBFE002004210346CA01CDE9FF
:103FA00000100FA1114800F0C1FE1148006800F098
:103FB00083FA00F04DF91CBD436F6E74726F6C5F35
:103FC0007461736B000000006D0C00084D50553695
:103FD0003035305F7461736B00000000F11A000827
:103FE000444154415F7461736B000000212F00084D
:103FF0002C01002010B54FF44070FDF7F5FDFFF7E0
:10400000BDF84FF4E13000F037F8FCF7C9FD0D4B77
:104010000B221E210C48FDF733FFFCF7B1FFFCF724
:10402000FFFFFCF74DFFFDF78FFD002141F61F401C
:10403000FDF7E4FDFDF7A8F9FDF75CFC0349086016
:1040400010BD0000B81E853DF6285C3E080100202A
:1040500070B506460D46144629463046FCF7A4FBCB
:1040600001D2284670BD21463046FCF7A7FB01D29D
:104070002046F7E73046F5E710B586B00446012143
:104080000420FDF749FE01218803FDF745FE4FF4AA
:104090000070ADF8140003208DF8160018208DF87C
:1040A000170005A91C48FDF715F84FF48060ADF81E
:1040B000140048208DF8170005A91748FDF70AF8E5
:1040C00025208DF8000001208DF8010000208DF8DA
:1040D000020001208DF803006846FDF74DFD0194B4
:1040E0000020ADF80800ADF80A00ADF80C00ADF8FE
:1040F00010000C20ADF80E0001A90848FEF76AFD7B
:10410000012240F225510548FEF73EFD01210348FA
:10411000FEF704FD06B010BD000801400038014064
:104120000549088000BF0449091F098801F04001C2
:104130000029F8D0704700000438014001460A69A0
:10414000D1E901309860D1E9010358605068884294
:1041500001D188685060002008611068401E10601E
:104160001068704701480068704700006000002038
:1041700000F1080141604FF0FF31816000F108015A
:10418000C160016100210160704700210161704739
:1041900010B502460B685C1C0CB9106907E002F10F
:1041A000080000E04068446824689C42FAD94468EA
:1041B0004C604C68A160886041600A611468641CAE
:1041C000146010BD42684A6093688B6093685960C0
:1041D0009160086103685B1C0360704710B500BF05
:1041E000502080F31188BFF34F8FBFF36F8F00BF54
:1041F0000B480068401C0A4908600846006801280E
:104200000DD108480068C0B208B9012000E00020C4
:1042100028B94FF4BB7204A109A0FEF77FFD10BDC1
:104220004400002004ED00E04672656552544F538F
:104230005C706F72745C706F72742E6300000000AB
:104240004572726F723A25732C25640D0A000000C6
:1042500010B50B48006828B940F27D1209A10FA0E3
:10426000FEF75CFD06480068401E054908600846E8
:10427000006820B9002080F3118800BF00BF10BD86
:10428000440000204672656552544F535C706F7253
:10429000745C706F72742E63000000004572726F60
:1042A000723A25732C25640D0A00000070B506468D
:1042B0003546002E31D0083D2C466068C00F28B925
:1042C00040F22F1215A11BA0FEF728FD206808B9A7
:1042D000012000E0002028B94FF498720FA115A02A
:1042E000FEF71CFD6068C00FB8B12068A8B960680F
:1042F00020F00040606000F045FA124960680968EB
:104300000844104908602046FFF790FA0E480068FC
:10431000401C0D49086000F0D1FF70BD4672656514
:1043200052544F535C706F72745C686561705F3497
:104330002E6300004572726F723A25732C25640D4E
:104340000A000000340000204000002000204FF050
:10435000E02108618861064800684FF47A71B0FB7B
:10436000F1F0401E4FF0E0214861072008617047DE
:10437000000000202DE9F04105460F4600262DB92A
:1043800040F6D82210A116A0FEF7C8FCBFB1002449
:1043900012E0174800EBC4004068A84203D114485B
:1043A00000EBC4060AE036B9114850F8340010B9E1
:1043B0000F4800EBC406641C082CEAD300BF0EB102
:1043C00037607560BDE8F0814672656552544F53A1
:1043D0005C7372635C71756575652E630000000027
:1043E0004572726F723A25732C25640D0A00000025
:1043F000345100202DE9F04105460E4617462C4663
:10440000FFF7ECFE94F94400401C10B9002084F83A
:10441000440094F94500401C10B9002084F8450080
:10442000FFF716FFA06B28B93A46314604F1240085
:1044300000F00CF92046FFF774FCBDE8F0810000A5
:1044400070B504460025ACB10F48006808B90120DA
:1044500000E0002028B940F21C520CA111A0FEF788
:104460005DFC00F08FF900212046FEF739FF00F0D7
:1044700025FF05463DB94FF080500E490860BFF357
:104480004F8FBFF36F8F70BD8C0000204672656543
:1044900052544F535C7372635C7461736B732E631D
:1044A000000000004572726F723A25732C25640D6E
:1044B0000A00000004ED00E070B50546FFF78EFE2F
:1044C00015B92F48006800E028460446201DFFF774
:1044D00035FE78B9E06A00EB80002A4951F82000E7
:1044E00040B994F82C10012088402749096881437D
:1044F00025480160A06A18B104F11800FFF71EFEFC
:1045000022480068401C214908601D480068844218
:1045100009D1211D1E48FFF755FE1E480068401CAA
:104520001C49086006E01C480068401E1A490860E3
:10453000FFF76CFBFFF78CFE11480068844202D045
:104540002046FFF74DF815480068C0B10C480068D8
:10455000844214D11248006808B9012000E000200C
:1045600028B940F2AF420FA114A0FEF7D7FB4FF0DD
:10457000805016490860BFF34F8FBFF36F8F70BD37
:104580005000002074510020680000207C000020B2
:10459000305400205C000020600000206C000020EF
:1045A0008C0000204672656552544F535C737263F1
:1045B0005C7461736B732E63000000004572726F50
:1045C000723A25732C25640D0A00000004ED00E00A
:1045D00003490968016003490968416070470000A8
:1045E0007800002064000020012001490860704725
:1045F0007400002070B504460D462CB940F60E42FA
:1046000007A10DA0FEF78AFB0F480168183120466C
:10461000FFF7BEFD01212846FEF762FE70BD0000D7
:104620004672656552544F535C7372635C74617378
:104630006B732E63000000004572726F723A25732F
:104640002C25640D0A0000005000002070B50446BF
:104650000E4615462CB940F6444211A116A0FEF7AD
:104660005DFB606818490968C86117498268096874
:104670000A6215490968183182685160124909684F
:1046800018318160104909688C622168491C2160D9
:104690000DB14FF0FF3629463046FEF721FE70BDC2
:1046A0004672656552544F535C7372635C746173F8
:1046B0006B732E63000000004572726F723A2573AF
:1046C0002C25640D0A000000500000201CB51B487A
:1046D00000210B468222CDE9001019A11A4800F0F2
:1046E00025FB0446012C02D100F0B2FE0446012C49
:1046F00015D100BF502080F31188BFF34F8FBFF357
:104700006F8F00BF4FF0FF30104908600120104943
:10471000086000200F49086000F092F80BE0601C70
:1047200008B1012000E0002028B940F612020AA1D9
:104730000FA0FEF7F3FA124800681CBD84000020A9
:1047400049444C45000000008D36000880000020E0
:104750006C000020640000204672656552544F537F
:104760005C7372635C7461736B732E630000000092
:104770004572726F723A25732C25640D0A00000091
:104780008800002002480068401C0149086070470A
:104790008C00002010B51B48006818B101201A4990
:1047A00008602DE000201849086018480068B0FA39
:1047B00080F0C0F11F0404EB8400154951F820007B
:1047C00008B1012000E0002028B940F6F63211A11E
:1047D00016A0FEF7A3FA04EB84010D4A02EB810058
:1047E00041684968416000F1080142688A4202D18B
:1047F0004168496841604168C968104A116000BF5A
:1048000010BD00008C000020740000206800002013
:10481000745100204672656552544F535C73726345
:104820005C7461736B732E63000000004572726FDD
:10483000723A25732C25640D0A00000050000020F8
:104840001CB53B4C204600780190FF2021460870A3
:104850000846007800909DF8000000F0F0009DF8F8
:104860000010884201D1012000E0002028B94FF457
:10487000917230A135A0FEF751FA9DF8000000F0CA
:1048800050003649087007203549086009E034486F
:104890000068401E324908609DF800004006000E86
:1048A00000909DF8000000F080008028EFD02C4898
:1048B0000068C0F10700042801D1012000E00020B9
:1048C00028B94FF49B721BA120A0FEF727FA2448B9
:1048D0000068C0F10700042801D1012000E0002099
:1048E00028B940F23F1213A118A0FEF717FA1C488E
:1048F000006800021A4908600846008800F4E06079
:1049000008600B49019808701648006840F4700070
:10491000144908600846006840F070400860FFF7DE
:1049200015FD002010490860FBF7FCFB00201CBDB2
:1049300000E400E04672656552544F535C706F723C
:10494000745C706F72742E63000000004572726FA9
:10495000723A25732C25640D0A00000048000020DF
:104960004C00002020ED00E04400002010B500BF06
:10497000502080F31188BFF34F8FBFF36F8F00BFBC
:1049800000F08EFA18B14FF080500449086000BF63
:10499000002080F3118800BF10BD000004ED00E08E
:1049A0002DE9F84305460E4617460024E5B1601E82
:1049B000B0FBF5F0B04217D305FB06F010F1550F30
:1049C00012D805FB06F909F15400FFF7F3F9044684
:1049D0008CB1A04608F154083B4642463146284671
:1049E0000094FEF767FE06E02CB94FF4F27203A1C3
:1049F00008A0FEF793F92046BDE8F8834672656586
:104A000052544F535C7372635C71756575652E63A8
:104A1000000000004572726F723A25732C25640DF8
:104A20000A0000002DE9F04105460E4601272C46FC
:104A30002CB94FF497722CA131A0FEF76FF9002C1E
:104A400042D0E06B00283FD04FF0FF31E06BB1FB6C
:104A5000F0F0216C884237D3FFF7C0FBD4E90F1286
:104A6000206801FB0200A0600020A0632068606055
:104A7000E06B401E226C216800FB0211E160FF2008
:104A800084F8440084F845009EB9206908B90120E3
:104A900000E00020A8B904F1100000F06FFB80B125
:104AA0004FF080501A490860BFF34F8FBFF36F8FEC
:104AB00007E004F11000FFF75BFB04F12400FFF7AF
:104AC00057FBFFF7C5FB00E000270FB1012000E016
:104AD000002028B940F2631203A109A0FEF71EF9D5
:104AE0003846BDE8F08100004672656552544F5368
:104AF0005C7372635C71756575652E630000000000
:104B00004572726F723A25732C25640D0A000000FD
:104B100004ED00E02DE9F74183B005460E464FF065
:104B200000082C462CB940F26B524CA151A0FEF764
:104B3000F5F80EB9206C08B9012000E0002028B972
:104B400040F26F5245A14BA0FEF7E8F800F092F951
:104B500008B9059808B9012000E0002028B940F202
:104B600074523EA143A0FEF7D9F800BFFFF736FB11
:104B7000A76BF7B131462046FEF7DEFC781EA06336
:104B8000206908B9012000E0002060B904F110009C
:104B900000F0F4FA38B14FF080503A490860BFF3A2
:104BA0004F8FBFF36F8FFFF753FB012006B0BDE8B7
:104BB000F081059818B9FFF74BFB0020F6E7B8F134
:104BC000000F04D101A8FFF703FD4FF00108FFF724
:104BD0003FFBFFF7D7FDFFF701FB94F94400401CB2
:104BE00010B9002084F8440094F94500401C10B925
:104BF000002084F84500FFF72BFB05A901A800F071
:104C000043F8F0B92046FEF771FEA0B104F124008C
:104C10000599FFF7EFFC2046FFF783F800F04EFB05
:104C20000028A3D14FF0805016490860BFF34F8F82
:104C3000BFF36F8F9AE72046FFF773F800F03EFB53
:104C400094E72046FFF76DF800F038FB2046FEF7AA
:104C50004DFE00288AD00020A8E700004672656556
:104C600052544F535C7372635C71756575652E6346
:104C7000000000004572726F723A25732C25640D96
:104C80000A00000004ED00E070B505460C462DB9A1
:104C900040F6EF4219A11FA0FEF740F82CB94FF4DF
:104CA0004F6216A11BA0FEF739F8FFF797FA1D48CF
:104CB000036868681A1A2068401C08B9002619E0C1
:104CC000194928680968884206D06868984203D85C
:104CD0000126002020600DE02068904207D920685E
:104CE000801A20602846FFF773FC002602E00020AF
:104CF00020600126FFF7ACFA304670BD467265654C
:104D000052544F535C7372635C7461736B732E63A4
:104D1000000000004572726F723A25732C25640DF5
:104D20000A00000064000020780000202DE9FF4FF9
:104D300085B0804689461746DDE912ABB800FFF71B
:104D400039F8064676B15C20FFF734F804462CB1FA
:104D50005C212046FBF74BFA266304E03046FFF760
:104D6000A5FA00E000247CB10020CDE900ABCDE93C
:104D700002403A4649464046089BFEF7B3FC2046AF
:104D8000FEF70EFB012501E04FF0FF35284609B084
:104D9000BDE8F08F2DE9F04704460F464FF00009BB
:104DA0002CB940F2C44226A12BA0FDF7B7FF0FB1EA
:104DB000012000E0002028B940F2C54220A126A031
:104DC000FDF7ACFF2848006808B9012000E000208A
:104DD00028B940F2C6421AA11FA0FDF79FFFFFF7B6
:104DE000D1FC224806682068C5192068B04207D95E
:104DF0002068A8420BD9B54209D94FF0010906E055
:104E00002068A84201D8B54201D94FF001092560B8
:104E1000B9F1000F03D0A81B0021FEF761FA00F0E2
:104E20004DFA8046B8F1000F07D14FF0805010497D
:104E30000860BFF34F8FBFF36F8F4846BDE8F08720
:104E40004672656552544F535C7372635C74617350
:104E50006B732E63000000004572726F723A257307
:104E60002C25640D0A0000008C0000206400002046
:104E700004ED00E00549096809B9012005E004498D
:104E8000096809B9022000E0002070476C0000208A
:104E90008C00002001490868704700006400002071
:104EA0002DE9F0414FF000085E48006800287DD1F0
:104EB0005D480068451C5C480560EDB95B480068CA
:104EC000006808B9012000E0002028B940F6B722A8
:104ED00057A15DA0FDF722FF544807685E480068AF
:104EE000524908605C4807605C480068401C5B49A8
:104EF0000860FEF78BFE00BF59480068854277D3F3
:104F000000BF4A480068006808B9012000E000209E
:104F100020B14FF0FF305249086068E04348006814
:104F2000C068C4686668B54202D24D4806605EE05B
:104F30006069D4E902128A60D4E902214A60211D25
:104F400042688A4201D1E1684160002262610168E1
:104F5000491E0160A06A98B1A06AD4E907128A606C
:104F6000D4E907214A6004F1180142688A4201D15C
:104F7000216A41600022A2620168491E016000BFEF
:104F800094F82C10012088403649096808433549B7
:104F90000860E16A01EB8101334A02EB8101486854
:104FA000A0608268E260211D826800E032E051600A
:104FB0008160E16A01EB81012B4A02EB81026261AF
:104FC000E16A01EB8101284A52F82110491CE26A8A
:104FD00002EB8202244B43F822102449E06A09685C
:104FE000C96A88428DD94FF001088AE700E000BF06
:104FF0001E480068C06A00EB80001B4951F8200081
:10500000012801D94FF001081948006808B14FF094
:10501000010804E017480068401C16490860404633
:10502000BDE8F0818C0000206400002054000020C6
:105030004672656552544F535C7372635C7461735E
:105040006B732E63000000004572726F723A257315
:105050002C25640D0A000000580000207800002074
:1050600080000020680000207451002050000020C3
:10507000740000207000002070B505462C46002604
:10508000002D5ED030480068844201D1012000E04C
:10509000002028B941F248022CA132A0FDF73EFEC3
:1050A000206D28B941F2490228A12EA0FDF736FE55
:1050B000206D401E2065E16CE06A884241D0206D81
:1050C00000283ED1201DFFF739F840B994F82C1084
:1050D0000120884027490968814326480160E06C27
:1050E000E062E06AC0F12000A06194F82C10012079
:1050F00088402049096808431E490860E16A01EBBD
:1051000081011D4A02EB81014868A0608268E2606B
:10511000211D826851608160E16A01EB8101164ABC
:1051200002EB81026261E16A01EB8101124A52F8ED
:105130002110491CE26A02EB82020F4B43F8221055
:105140000126304670BD00005000002046726565A3
:1051500052544F535C7372635C7461736B732E6350
:10516000000000004572726F723A25732C25640DA1
:105170000A000000680000207451002070B5064647
:10518000F068C4682CB940F674423CA141A0FDF718
:10519000C5FDA06AD4E907128A60D4E907214A60F4
:1051A00004F1180142688A4201D1216A416000225B
:1051B000A2620168491E01603A48006800283DD19A
:1051C0006069D4E902128A60D4E902214A60211D93
:1051D00042688A4201D1E16841600022626101684F
:1051E000491E016094F82C10012088402E4909685E
:1051F00008432D490860E16A01EB81012B4A02EB6B
:1052000081014868A0608268E260211D8268516067
:105210008160E16A01EB8101244A02EB8102626153
:10522000E16A01EB8101214A52F82110491CE26A2E
:1052300002EB82021D4B43F8221010E01C49486823
:10524000E0618268226204F1180182685160816025
:10525000174AA26211460968491C116000BF15492E
:10526000E06A0968C96A884204D901250120124907
:10527000086000E00025284670BD000046726565A4
:1052800052544F535C7372635C7461736B732E631F
:10529000000000004572726F723A25732C25640D70
:1052A0000A0000008C0000206800002074510020DB
:1052B0001C540020500000207400002070B5002411
:1052C00000265048006828B940F685024EA154A037
:1052D000FDF724FDFEF782FF4A480068401E494959
:1052E00008600846006800287ED151480068002800
:1052F0007AD05BE04F48C068C468A06AD4E907125E
:105300008A60D4E907214A6004F1180142688A42A0
:1053100001D1216A41600022A2620168491E016038
:105320006069D4E902128A60D4E902214A60211D31
:1053300042688A4201D1E1684160002262610168ED
:10534000491E016094F82C10012088403A490968F0
:10535000084339490860E16A01EB8101374A02EBF1
:1053600081014868A0608268E260211D8268516006
:105370008160E16A01EB8101304A02EB81026261E6
:10538000E16A01EB81012D4A52F82110491CE26AC1
:1053900002EB8202294B43F822102949E06A09688E
:1053A000C96A884202D30120264908602148006862
:1053B00008B9012000E0002000289BD00CB1FEF7C6
:1053C00025FC2148056865B100BFFFF769FD10B1F4
:1053D00001201C4908606D1E002DF6D100201A49DD
:1053E00008601848006800E008E038B1012630077E
:1053F00016490860BFF34F8FBFF36F8FFEF728FF8A
:10540000304670BD8C0000204672656552544F5383
:105410005C7372635C7461736B732E6300000000D5
:105420004572726F723A25732C25640D0A000000D4
:10543000600000201C5400206800002074510020EF
:1054400050000020740000207000002004ED00E0F7
:105450001CB50024FEF71AF80B48006858B10B4839
:105460001F2100234FF48272CDE9001008A10A48E1
:10547000FFF75CFC04462CB940F2191207A10DA0FD
:10548000FDF74CFC20461CBD980000209C0000202D
:10549000546D722053766300093D000846726565BD
:1054A00052544F535C7372635C74696D6572732EF2
:1054B000630000004572726F723A25732C25640DEB
:1054C0000A000000E454000800000020340100003D
:1054D0004C0A00081455000834010020EC57000065
:1054E0004C2D00081184A24A046809010203040635
:1054F0000708090C6910051C020406081AAA010114
:1055000040022B1F0211014B96430401100354600B
:045510004000000057
:04000005080000ED02
:00000001FF
